{
  "_format": "hh-sol-artifact-1",
  "contractName": "Ruffle",
  "sourceName": "contracts/Raffle.sol",
  "abi": [
    {
      "inputs": [
        {
          "internalType": "address",
          "name": "vrfCoordinatorV2",
          "type": "address"
        },
        {
          "internalType": "uint256",
          "name": "entranceFee",
          "type": "uint256"
        }
      ],
      "stateMutability": "nonpayable",
      "type": "constructor"
    },
    {
      "inputs": [
        {
          "internalType": "address",
          "name": "have",
          "type": "address"
        },
        {
          "internalType": "address",
          "name": "want",
          "type": "address"
        }
      ],
      "name": "OnlyCoordinatorCanFulfill",
      "type": "error"
    },
    {
      "inputs": [],
      "name": "Ruffle__NotEnoughETHEntered",
      "type": "error"
    },
    {
      "anonymous": false,
      "inputs": [
        {
          "indexed": true,
          "internalType": "address",
          "name": "player",
          "type": "address"
        }
      ],
      "name": "RaffelEnter",
      "type": "event"
    },
    {
      "inputs": [],
      "name": "enterRaffle",
      "outputs": [],
      "stateMutability": "payable",
      "type": "function"
    },
    {
      "inputs": [],
      "name": "getEntranceFee",
      "outputs": [
        {
          "internalType": "uint256",
          "name": "",
          "type": "uint256"
        }
      ],
      "stateMutability": "view",
      "type": "function"
    },
    {
      "inputs": [
        {
          "internalType": "uint256",
          "name": "requestId",
          "type": "uint256"
        },
        {
          "internalType": "uint256[]",
          "name": "randomWords",
          "type": "uint256[]"
        }
      ],
      "name": "rawFulfillRandomWords",
      "outputs": [],
      "stateMutability": "nonpayable",
      "type": "function"
    },
    {
      "inputs": [],
      "name": "requestRandomWinner",
      "outputs": [],
      "stateMutability": "nonpayable",
      "type": "function"
    }
  ],
  "bytecode": "0x60c060405234801561001057600080fd5b50604051610700380380610700833981810160405281019061003291906100a4565b818073ffffffffffffffffffffffffffffffffffffffff1660808173ffffffffffffffffffffffffffffffffffffffff1660601b81525050508060a081815250505050610153565b60008151905061008981610125565b92915050565b60008151905061009e8161013c565b92915050565b600080604083850312156100bb576100ba610120565b5b60006100c98582860161007a565b92505060206100da8582860161008f565b9150509250929050565b60006100ef826100f6565b9050919050565b600073ffffffffffffffffffffffffffffffffffffffff82169050919050565b6000819050919050565b600080fd5b61012e816100e4565b811461013957600080fd5b50565b61014581610116565b811461015057600080fd5b50565b60805160601c60a0516105796101876000396000818160bd01526101a301526000818160e3015261013701526105796000f3fe60806040526004361061003f5760003560e01c806309bc33a7146100445780631fe543e31461006f5780632cfcc53914610098578063522a1f0b146100a2575b600080fd5b34801561005057600080fd5b506100596100b9565b60405161006691906103ff565b60405180910390f35b34801561007b57600080fd5b506100966004803603810190610091919061035c565b6100e1565b005b6100a06101a1565b005b3480156100ae57600080fd5b506100b76102a3565b005b60007f0000000000000000000000000000000000000000000000000000000000000000905090565b7f000000000000000000000000000000000000000000000000000000000000000073ffffffffffffffffffffffffffffffffffffffff163373ffffffffffffffffffffffffffffffffffffffff161461019357337f00000000000000000000000000000000000000000000000000000000000000006040517f1cf993f400000000000000000000000000000000000000000000000000000000815260040161018a9291906103d6565b60405180910390fd5b61019d82826102a5565b5050565b7f00000000000000000000000000000000000000000000000000000000000000003410156101fb576040517f7a98ce6f00000000000000000000000000000000000000000000000000000000815260040160405180910390fd5b6000339080600181540180825580915050600190039060005260206000200160009091909190916101000a81548173ffffffffffffffffffffffffffffffffffffffff021916908373ffffffffffffffffffffffffffffffffffffffff1602179055503373ffffffffffffffffffffffffffffffffffffffff167f7576dfa1d70e42585bbb6b7a5765babb3ee338a059e83b51eab753df95c7625560405160405180910390a2565b565b5050565b60006102bc6102b78461043f565b61041a565b905080838252602082019050828560208602820111156102df576102de61050c565b5b60005b8581101561030f57816102f58882610347565b8452602084019350602083019250506001810190506102e2565b5050509392505050565b600082601f83011261032e5761032d610507565b5b813561033e8482602086016102a9565b91505092915050565b6000813590506103568161052c565b92915050565b6000806040838503121561037357610372610516565b5b600061038185828601610347565b925050602083013567ffffffffffffffff8111156103a2576103a1610511565b5b6103ae85828601610319565b9150509250929050565b6103c18161046b565b82525050565b6103d08161049d565b82525050565b60006040820190506103eb60008301856103b8565b6103f860208301846103b8565b9392505050565b600060208201905061041460008301846103c7565b92915050565b6000610424610435565b905061043082826104a7565b919050565b6000604051905090565b600067ffffffffffffffff82111561045a576104596104d8565b5b602082029050602081019050919050565b60006104768261047d565b9050919050565b600073ffffffffffffffffffffffffffffffffffffffff82169050919050565b6000819050919050565b6104b08261051b565b810181811067ffffffffffffffff821117156104cf576104ce6104d8565b5b80604052505050565b7f4e487b7100000000000000000000000000000000000000000000000000000000600052604160045260246000fd5b600080fd5b600080fd5b600080fd5b600080fd5b6000601f19601f8301169050919050565b6105358161049d565b811461054057600080fd5b5056fea264697066735822122051576ba1e1cab1e24e245ca0989f4bfd3f8541f5cc8c8e93ef83d4318331113e64736f6c63430008070033",
  "linkReferences": {},
  "deployedLinkReferences": {}
}